{
  "_format": "hh3-artifact-1",
  "contractName": "Voting",
  "sourceName": "contracts/voting.sol",
  "abi": [
    {
      "inputs": [
        {
          "internalType": "address",
          "name": "initialOwner",
          "type": "address"
        }
      ],
      "stateMutability": "nonpayable",
      "type": "constructor"
    },
    {
      "inputs": [
        {
          "internalType": "address",
          "name": "owner",
          "type": "address"
        }
      ],
      "name": "OwnableInvalidOwner",
      "type": "error"
    },
    {
      "inputs": [
        {
          "internalType": "address",
          "name": "account",
          "type": "address"
        }
      ],
      "name": "OwnableUnauthorizedAccount",
      "type": "error"
    },
    {
      "anonymous": false,
      "inputs": [
        {
          "indexed": true,
          "internalType": "uint256",
          "name": "electionId",
          "type": "uint256"
        },
        {
          "indexed": false,
          "internalType": "address",
          "name": "candidate",
          "type": "address"
        }
      ],
      "name": "CandidateRegistered",
      "type": "event"
    },
    {
      "anonymous": false,
      "inputs": [
        {
          "indexed": true,
          "internalType": "uint256",
          "name": "electionId",
          "type": "uint256"
        }
      ],
      "name": "ElectionCreated",
      "type": "event"
    },
    {
      "anonymous": false,
      "inputs": [
        {
          "indexed": true,
          "internalType": "uint256",
          "name": "electionId",
          "type": "uint256"
        }
      ],
      "name": "ElectionEnded",
      "type": "event"
    },
    {
      "anonymous": false,
      "inputs": [
        {
          "indexed": true,
          "internalType": "address",
          "name": "previousOwner",
          "type": "address"
        },
        {
          "indexed": true,
          "internalType": "address",
          "name": "newOwner",
          "type": "address"
        }
      ],
      "name": "OwnershipTransferred",
      "type": "event"
    },
    {
      "anonymous": false,
      "inputs": [
        {
          "indexed": true,
          "internalType": "uint256",
          "name": "electionId",
          "type": "uint256"
        },
        {
          "indexed": false,
          "internalType": "address",
          "name": "voter",
          "type": "address"
        },
        {
          "indexed": false,
          "internalType": "address",
          "name": "candidate",
          "type": "address"
        }
      ],
      "name": "VoteCast",
      "type": "event"
    },
    {
      "inputs": [],
      "name": "createElection",
      "outputs": [],
      "stateMutability": "nonpayable",
      "type": "function"
    },
    {
      "inputs": [],
      "name": "currentElectionId",
      "outputs": [
        {
          "internalType": "uint256",
          "name": "",
          "type": "uint256"
        }
      ],
      "stateMutability": "view",
      "type": "function"
    },
    {
      "inputs": [],
      "name": "endElection",
      "outputs": [],
      "stateMutability": "nonpayable",
      "type": "function"
    },
    {
      "inputs": [
        {
          "internalType": "uint256",
          "name": "electionId",
          "type": "uint256"
        }
      ],
      "name": "getAllCandidatesWithVotes",
      "outputs": [
        {
          "internalType": "address[]",
          "name": "",
          "type": "address[]"
        },
        {
          "internalType": "uint256[]",
          "name": "",
          "type": "uint256[]"
        }
      ],
      "stateMutability": "view",
      "type": "function"
    },
    {
      "inputs": [
        {
          "internalType": "uint256",
          "name": "electionId",
          "type": "uint256"
        }
      ],
      "name": "getCandidates",
      "outputs": [
        {
          "internalType": "address[]",
          "name": "",
          "type": "address[]"
        }
      ],
      "stateMutability": "view",
      "type": "function"
    },
    {
      "inputs": [],
      "name": "getCurrentCandidates",
      "outputs": [
        {
          "internalType": "address[]",
          "name": "",
          "type": "address[]"
        }
      ],
      "stateMutability": "view",
      "type": "function"
    },
    {
      "inputs": [],
      "name": "getCurrentCandidatesWithVotes",
      "outputs": [
        {
          "internalType": "address[]",
          "name": "",
          "type": "address[]"
        },
        {
          "internalType": "uint256[]",
          "name": "",
          "type": "uint256[]"
        }
      ],
      "stateMutability": "view",
      "type": "function"
    },
    {
      "inputs": [
        {
          "internalType": "uint256",
          "name": "electionId",
          "type": "uint256"
        },
        {
          "internalType": "address",
          "name": "wallet",
          "type": "address"
        }
      ],
      "name": "hasVoted",
      "outputs": [
        {
          "internalType": "bool",
          "name": "",
          "type": "bool"
        }
      ],
      "stateMutability": "view",
      "type": "function"
    },
    {
      "inputs": [
        {
          "internalType": "uint256",
          "name": "electionId",
          "type": "uint256"
        },
        {
          "internalType": "address",
          "name": "wallet",
          "type": "address"
        }
      ],
      "name": "isCandidate",
      "outputs": [
        {
          "internalType": "bool",
          "name": "",
          "type": "bool"
        }
      ],
      "stateMutability": "view",
      "type": "function"
    },
    {
      "inputs": [],
      "name": "isCurrentElectionActive",
      "outputs": [
        {
          "internalType": "bool",
          "name": "",
          "type": "bool"
        }
      ],
      "stateMutability": "view",
      "type": "function"
    },
    {
      "inputs": [],
      "name": "owner",
      "outputs": [
        {
          "internalType": "address",
          "name": "",
          "type": "address"
        }
      ],
      "stateMutability": "view",
      "type": "function"
    },
    {
      "inputs": [
        {
          "internalType": "address",
          "name": "candidateWallet",
          "type": "address"
        }
      ],
      "name": "registerCandidate",
      "outputs": [],
      "stateMutability": "nonpayable",
      "type": "function"
    },
    {
      "inputs": [],
      "name": "renounceOwnership",
      "outputs": [],
      "stateMutability": "nonpayable",
      "type": "function"
    },
    {
      "inputs": [
        {
          "internalType": "address",
          "name": "newOwner",
          "type": "address"
        }
      ],
      "name": "transferOwnership",
      "outputs": [],
      "stateMutability": "nonpayable",
      "type": "function"
    },
    {
      "inputs": [
        {
          "internalType": "address",
          "name": "voterWallet",
          "type": "address"
        },
        {
          "internalType": "address",
          "name": "candidateWallet",
          "type": "address"
        }
      ],
      "name": "vote",
      "outputs": [],
      "stateMutability": "nonpayable",
      "type": "function"
    }
  ],
  "bytecode": "0x6080604052348015600e575f5ffd5b50604051610f38380380610f38833981016040819052602b9160b4565b806001600160a01b038116605857604051631e4fbdf760e01b81525f600482015260240160405180910390fd5b605f816065565b505060df565b5f80546001600160a01b038381166001600160a01b0319831681178455604051919092169283917f8be0079c531659141344cd1fd0a4f28419497f9722a3daafe3b4186f6b6457e09190a35050565b5f6020828403121560c3575f5ffd5b81516001600160a01b038116811460d8575f5ffd5b9392505050565b610e4c806100ec5f395ff3fe608060405234801561000f575f5ffd5b50600436106100f0575f3560e01c80637bdf42fc11610093578063d384e4d411610063578063d384e4d4146101e5578063f2fde38b146101ed578063fb11030814610200578063fd05a4f014610208575f5ffd5b80637bdf42fc1461018057806384aa3b93146101a15780638da5cb5b146101b457806398ecf2a0146101ce575f5ffd5b806343859632116100ce578063438596321461013a57806359f784681461015d578063715018a61461016557806375a7e6b21461016d575f5ffd5b80631afa74e5146100f457806324c2286c146101095780633e39a7a514610111575b5f5ffd5b610107610102366004610c31565b610210565b005b610107610468565b61012461011f366004610c62565b61053f565b6040516101319190610cbc565b60405180910390f35b61014d610148366004610cd5565b6105fe565b6040519015158152602001610131565b610107610649565b6101076106df565b61014d61017b366004610cd5565b6106f2565b61019361018e366004610c62565b61073c565b604051610131929190610cf6565b6101076101af366004610d4e565b6108c7565b5f546040516001600160a01b039091168152602001610131565b6101d760015481565b604051908152602001610131565b610124610a70565b6101076101fb366004610d4e565b610afe565b61014d610b3b565b610193610b64565b610218610b9b565b6001600160a01b03821661026b5760405162461bcd60e51b8152602060048201526015602482015274496e76616c696420766f746572206164647265737360581b60448201526064015b60405180910390fd5b6001600160a01b0381166102bd5760405162461bcd60e51b8152602060048201526019602482015278496e76616c69642063616e646964617465206164647265737360381b6044820152606401610262565b5f600154116102de5760405162461bcd60e51b815260040161026290610d67565b600180545f9081526002602052604090209081015460ff166103125760405162461bcd60e51b815260040161026290610d9e565b6001600160a01b0382165f90815260038201602052604090205460ff1661037b5760405162461bcd60e51b815260206004820152601860248201527f43616e646964617465206e6f74207265676973746572656400000000000000006044820152606401610262565b6001600160a01b0383165f90815260058201602052604090205460ff16156103d55760405162461bcd60e51b815260206004820152600d60248201526c105b1c9958591e481d9bdd1959609a1b6044820152606401610262565b6001600160a01b0382165f90815260048201602052604081208054916103fa83610dca565b90915550506001600160a01b038381165f818152600584016020908152604091829020805460ff19166001908117909155548251938452938616908301527fcfff1651bcea794952a516ce970ab17518a85210bd939aaeaac670a8d3e65ec7910160405180910390a2505050565b610470610b9b565b600154156104db57600180545f908152600260205260409020015460ff16156104db5760405162461bcd60e51b815260206004820152601d60248201527f416e20656c656374696f6e20697320616c7265616479206163746976650000006044820152606401610262565b60018054905f6104ea83610dca565b9091555050600180545f81815260026020526040808220928355828401805460ff191685179055925492519192917fe5ada6048ea7c2d62f0279b6b2e956a1d24f57eb887465b33a580e916257a6e79190a250565b60605f8211801561055257506001548211155b6105945760405162461bcd60e51b8152602060048201526013602482015272125b9d985b1a5908195b1958dd1a5bdb881251606a1b6044820152606401610262565b5f82815260026020818152604092839020909101805483518184028101840190945280845290918301828280156105f257602002820191905f5260205f20905b81546001600160a01b031681526001909101906020018083116105d4575b50505050509050919050565b5f82158061060d575060015483115b1561061957505f610643565b505f8281526002602090815260408083206001600160a01b038516845260050190915290205460ff165b92915050565b610651610b9b565b5f600154116106725760405162461bcd60e51b815260040161026290610d67565b600180545f9081526002602052604090209081015460ff166106a65760405162461bcd60e51b815260040161026290610d9e565b6001808201805460ff19169055546040517f562cd572b2ba3b666cd989fc4ca98419ec81e75f04528df9d9d76fdb7807ee71905f90a250565b6106e7610b9b565b6106f05f610bc7565b565b5f821580610701575060015483115b1561070d57505f610643565b505f8281526002602090815260408083206001600160a01b038516845260030190915290205460ff1692915050565b6060805f8311801561075057506001548311155b6107925760405162461bcd60e51b8152602060048201526013602482015272125b9d985b1a5908195b1958dd1a5bdb881251606a1b6044820152606401610262565b5f83815260026020819052604082209081015490918167ffffffffffffffff8111156107c0576107c0610dee565b6040519080825280602002602001820160405280156107e9578160200160208202803683370190505b5090505f5b8281101561085b57836004015f85600201838154811061081057610810610e02565b5f9182526020808320909101546001600160a01b03168352820192909252604001902054825183908390811061084857610848610e02565b60209081029190910101526001016107ee565b508260020181818054806020026020016040519081016040528092919081815260200182805480156108b457602002820191905f5260205f20905b81546001600160a01b03168152600190910190602001808311610896575b5050505050915094509450505050915091565b6108cf610b9b565b6001600160a01b0381166109215760405162461bcd60e51b8152602060048201526019602482015278496e76616c69642063616e646964617465206164647265737360381b6044820152606401610262565b5f600154116109425760405162461bcd60e51b815260040161026290610d67565b600180545f9081526002602052604090209081015460ff166109765760405162461bcd60e51b815260040161026290610d9e565b6001600160a01b0382165f90815260038201602052604090205460ff16156109e05760405162461bcd60e51b815260206004820152601860248201527f43616e64696461746520616c72656164792065786973747300000000000000006044820152606401610262565b600281018054600180820183555f928352602080842090920180546001600160a01b0319166001600160a01b0387169081179091558084526003850183526040808520805460ff19168417905560048601845280852094909455905492519081527ff1ea2573ddf2ce6e931102024c2b67e7d23a5e33614f19c27f5a5aaf1d59c088910160405180910390a25050565b60605f60015411610a935760405162461bcd60e51b815260040161026290610d67565b6001545f9081526002602081815260409283902090910180548351818402810184019094528084529091830182828015610af457602002820191905f5260205f20905b81546001600160a01b03168152600190910190602001808311610ad6575b5050505050905090565b610b06610b9b565b6001600160a01b038116610b2f57604051631e4fbdf760e01b81525f6004820152602401610262565b610b3881610bc7565b50565b5f6001545f03610b4a57505f90565b50600180545f908152600260205260409020015460ff1690565b6060805f60015411610b885760405162461bcd60e51b815260040161026290610d67565b610b9360015461073c565b915091509091565b5f546001600160a01b031633146106f05760405163118cdaa760e01b8152336004820152602401610262565b5f80546001600160a01b038381166001600160a01b0319831681178455604051919092169283917f8be0079c531659141344cd1fd0a4f28419497f9722a3daafe3b4186f6b6457e09190a35050565b80356001600160a01b0381168114610c2c575f5ffd5b919050565b5f5f60408385031215610c42575f5ffd5b610c4b83610c16565b9150610c5960208401610c16565b90509250929050565b5f60208284031215610c72575f5ffd5b5035919050565b5f8151808452602084019350602083015f5b82811015610cb25781516001600160a01b0316865260209586019590910190600101610c8b565b5093949350505050565b602081525f610cce6020830184610c79565b9392505050565b5f5f60408385031215610ce6575f5ffd5b82359150610c5960208401610c16565b604081525f610d086040830185610c79565b82810360208401528084518083526020830191506020860192505f5b81811015610d42578351835260209384019390920191600101610d24565b50909695505050505050565b5f60208284031215610d5e575f5ffd5b610cce82610c16565b60208082526017908201527f4e6f20656c656374696f6e206372656174656420796574000000000000000000604082015260600190565b60208082526012908201527127379030b1ba34bb329032b632b1ba34b7b760711b604082015260600190565b5f60018201610de757634e487b7160e01b5f52601160045260245ffd5b5060010190565b634e487b7160e01b5f52604160045260245ffd5b634e487b7160e01b5f52603260045260245ffdfea2646970667358221220d68ecdbb5b7c6f7e03f1afd137c11a8ae6a7155f8ff34297054640c309aeaa7d64736f6c634300081c0033",
  "linkReferences": {},
  "deployedLinkReferences": {},
  "immutableReferences": {},
  "inputSourceName": "project/contracts/voting.sol",
  "buildInfoId": "solc-0_8_28-b98a79e71432f62f4dd4b0dadbf9265697059a9a"
}